:100000000C942A000C9434000C9434000C943400AA
:100010000C9434000C9434000C9434000C94340090
:100020000C9434000C9434000C9434000C94340080
:100030000C9434000C9434000C9434000C94340070
:100040000C9434000C9434000C9434000C94340060
:100050000C94340011241FBECFE5D4E0DEBFCDBF29
:100060000E9436000C94C0000C9400000F931F9364
:1000700011BA8FEF87BB82BB1AE069E170E0A9E09B
:1000800040E553EC05E0B6E080B390E0803F910599
:1000900011F418BB33C0883F910571F408BB28EBFD
:1000A0003BE0FB013197F1F721503040D1F7A8BB7D
:1000B000FA013197F1F733C0843F910571F408BB21
:1000C00028EB3BE0FB013197F1F721503040D1F7AD
:1000D000B8BBFA013197F1F733C0823F910571F453
:1000E00018BB28EB3BE0FB013197F1F72150304082
:1000F000D1F7A8BBFA013197F1F727C0813F9105ED
:1001000071F418BB28EB3BE0FB013197F1F721506C
:100110003040D1F7B8BBFA013197F1F71BC08C3FE3
:10012000910571F408BB28EB3BE0FB013197F1F737
:1001300021503040D1F7A8BBFA013197F1F70FC039
:10014000893F910511F4A8BB0DC0833F910511F4BF
:1001500018BB0DC0863F910511F4B8BB0BC08E3F94
:10016000910519F0873F910511F4B8BB8DCF8B3FF6
:10017000910521F08D3F910509F086CFA8BB84CF72
:04018000F894FFCF21
:00000001FF
